:1000000000000220E90600001107000013070000AD
:100010001507000017070000190700000000000086
:100020000000000000000000000000001B070000AE
:100030001D070000000000001F070000210700004E
:100040002307000023070000230700002307000008
:1000500023070000230700002307000023070000F8
:1000600023070000230700002307000023070000E8
:1000700023070000230700002307000023070000D8
:1000800023070000230700002307000023070000C8
:1000900023070000230700002307000023070000B8
:1000A00023070000230700002307000023070000A8
:1000B00023070000230700000000000000000000EC
:1000C0002307000023070000230700002307000088
:1000D0002307000023070000230700002307000078
:1000E00023070000000000000000000000000000E6
:1000F00000000000230700000000000023070000AC
:1001000000000000000000000000000000000000EF
:1001100000000000000000000000000000000000DF
:1001200000000000000000000000000000000000CF
:1001300000000000000000000000000000000000BF
:1001400000000000000000000000000000000000AF
:10015000000000000000000000000000000000009F
:10016000000000000000000000000000000000008F
:10017000000000000000000000000000000000007F
:10018000000000000000000000000000000000006F
:10019000000000000000000000000000000000005F
:1001A000000000000000000000000000000000004F
:1001B000000000000000000000000000000000003F
:1001C000000000000000000000000000000000002F
:1001D000000000000000000000000000000000001F
:1001E000000000000000000000000000000000000F
:1001F00000000000000000000000000000000000FF
:100200000348044B834202D0034B03B118477047A5
:100210004404002044040020000000000548064972
:100220000B1AD90F01EBA301491002D0034B03B104
:1002300018477047440400204404002000000000D8
:1002400010B5064C237843B9FFF7DAFF044B13B11E
:100250000448AFF300800123237010BD4404002044
:1002600000000000A409000008B5044B1BB10449BC
:100270000448AFF30080BDE80840CFE7000000006D
:1002800048040020A4090000A3F5803A704700BF8D
:10029000154B002B08BF114B9D46FFF7F5FF0021C2
:1002A0008B460F461148124A121A00F08FFA0C4B77
:1002B000002B00D098470B4B002B00D09847002014
:1002C000002104000D000B4800F02CFA00F05AFA4F
:1002D0002000290000F010F800F02AFA00000800C1
:1002E0000000000000000000000002204404002084
:1002F000600400205107000080B582B000AF0023E9
:100300007B6000F00DF800F051F842F210737B6052
:100310007B68013B7B607B68002BF9D1F5E700002F
:1003200080B400AF4FF0A0430122C3F870274FF014
:10033000A0430122C3F82C274FF0A0430122C3F8A9
:100340007C27124B0122C3F814274FF0A04301224F
:10035000C3F878270E4B0F4AC3F810250C4B0E4AF2
:10036000C3F814250A4B0D4AC3F81825084B0C4A4C
:10037000C3F81C25064B0B4AC3F82025044B0A4A38
:10038000C3F8242500BFBD4680BC70470003005061
:1003900000600040010E0200031503000316030075
:1003A000030F0300031803000313030080B400AF1E
:1003B000174B184AC3F81825154B174AC3F81C25C4
:1003C000134B144AC3F82025114B144AC3F82425B3
:1003D0000F4B104AC3F828250D4B114AC3F82C25A2
:1003E0000B4B0C4AC3F83025094B0E4AC3F8342591
:1003F000074B084AC3F83825054B0B4AC3F83C2580
:10040000034B3E22C3F8042500BFBD4680BC7047A5
:1004100000F00140006100400460004008600040BE
:100420000C600040106000401460004080B483B055
:1004300000AF0E4B1B687B600D4B1B683B607B68FD
:100440000D2B0CD13B68002B03D03B68012B02D055
:1004500003E0012304E0012302E0012300E0002384
:1004600018460C37BD4680BC704700BF30010010F5
:100470003401001080B483B000AF0E4B1B687B606A
:100480000D4B1B683B607B680D2B0CD13B68002B30
:1004900003D03B68012B02D003E0012304E00123D9
:1004A00002E0012300E0002318460C37BD4680BC63
:1004B000704700BF300100103401001080B483B0D9
:1004C00000AF0E4B1B687B600D4B1B683B607B686D
:1004D0000D2B0CD13B68002B03D03B68012B02D0C5
:1004E00003E0012304E0012302E0012300E00023F4
:1004F00018460C37BD4680BC704700BF3001001065
:100500003401001080B483B000AF0E4B1B687B60D9
:100510000D4B1B683B607B680D2B0CD13B68002B9F
:1005200003D03B68012B02D003E0002304E0012349
:1005300002E0012300E0002318460C37BD4680BCD2
:10054000704700BF300100103401001080B500AFCB
:10055000FFF7D8FF0346002B07D04FF010234FF0D2
:100560008042D3F80832C2F8583500BF80BD000081
:1005700080B400AF034B044A1A6000BFBD4680BC84
:10058000704700BF000000200090D00380B500AF8E
:10059000FFF74CFF0346002B0ED04FF080430022A4
:1005A000C3F80C214FF080430022C3F810214FF014
:1005B00080430022C3F83825FFF75CFF0346002B79
:1005C00076D04FF08053474AD3F80434C2F8203530
:1005D0004FF08053434AD3F80834C2F824354FF023
:1005E0008053404AD3F80C34C2F828354FF080537A
:1005F0003C4AD3F81034C2F82C354FF08053394AB6
:10060000D3F81434C2F830354FF08053354AD3F85C
:100610001834C2F834354FF08053324AD3F81C34C2
:10062000C2F840354FF080532E4AD3F82034C2F838
:1006300044354FF080532B4AD3F82434C2F8483560
:100640004FF08053274AD3F82834C2F84C354FF086
:100650008053244AD3F82C34C2F850354FF08053DD
:10066000204AD3F83034C2F854354FF080531D4A35
:10067000D3F83434C2F860354FF08053194AD3F8B8
:100680003834C2F864354FF08053164AD3F83C34FE
:10069000C2F868354FF08053124AD3F84034C2F89C
:1006A0006C354FF080530F4AD3F84434C2F870359C
:1006B000FFF704FF0346002B0DD04FF08043D3F823
:1006C000003403F00103002B05D04FF080436FF09E
:1006D0000102C3F80024FFF739FFFFF749FF00BF0D
:1006E00080BD00BF00C000400649074A074B9B1A67
:1006F00003DD043BC858D050FBDCFFF747FFFFF792
:10070000C7FD0000B00900000000002044040020E4
:10071000FEE7FEE7FEE7FEE7FEE7FEE7FEE7FEE7B1
:10072000FEE7FEE7002301461A46184600F09EB891
:1007300008B50021044600F0CDF8044B1868C36BDF
:1007400003B19847204600F01DF900BFA009000042
:1007500038B50A4C0A4D641BA4100AD004F180433A
:10076000013B05EB8305013C55F804399847002C03
:10077000F9D1BDE8384000F00DB900BF44040020B5
:100780004004002070B50D4E0D4D761BB61006D0FE
:100790000024013455F8043B9847A642F9D1094E8C
:1007A000094D761B00F0F0F8B61006D00024013495
:1007B00055F8043B9847A642F9D170BD3804002093
:1007C000380400204004002038040020F0B48607DC
:1007D00046D0541E002A3CD0CAB2034602E014F1AF
:1007E000FF3436D303F8012B9D07F8D1032C29D908
:1007F000CDB245EA05250F2C45EA054533D9A4F1CC
:100800001006360903F1200707EB061703F1100263
:1008100042E9045542E902551032BA42F8D1721C3D
:1008200014F00C0F03EB021204F00F0613D0331F69
:1008300023F003030433134442F8045B9342FBD1D7
:1008400006F003042CB1C9B21C4403F8011B9C42FE
:10085000FBD1F0BC704734461346002CF3D1F8E7C7
:1008600014460346C2E71A462646E0E7F0B4184CA1
:100870002568D5F8484114B365681F2D24DC38B9C4
:10088000AB1C0135656044F823100020F0BC7047B4
:1008900004EB85060127C6F8882007FA05F2D4F88C
:1008A0008871022847EA0207C4F88871C6F808313F
:1008B000E6D1D4F88C311A43C4F88C21E0E705F571
:1008C000A674C5F84841D7E74FF0FF30DEE700BF18
:1008D000A00900002DE9F04F244B83B0D3F800B0FD
:1008E00001908A464FF00008DBF8486196B17468C1
:1008F000651E0FD4013406EB84040127BAF1000F02
:100900000BD0D4F80031534507D0013D6B1CA4F146
:100910000404F3D103B0BDE8F08F73682268013B93
:10092000AB420CBF7560C4F80080002AEDD0D6F849
:100930008811D6F8049007FA05FC1CEA010F08D1CB
:10094000904772684A45CFD1DBF84831B342DCD0DA
:10095000CAE7D6F88C31D4F880101CEA030F02D114
:1009600001989047EDE708469047EAE7A0090000A4
:10097000024B13B10248FFF7D5BE704700000000DC
:1009800051070000FEE700BFF8B500BFF8BC08BC87
:100990009E467047F8B500BFF8BC08BC9E4670473D
:0809A00010000020000000001F
:0809A800E0F8FF7F01000000F0
:1009B0000090D003000000001000002000000000A4
:1009C00000000000FC02002064030020CC03002093
:1009D0000000000000000000000000000000000017
:1009E0000000000000000000000000000000000007
:1009F00000000000000000000000000000000000F7
:100A000000000000000000000000000000000000E6
:100A100000000000000000000000000000000000D6
:100A200000000000000000000000000000000000C6
:100A300000000000000000000000000000000000B6
:100A400000000000000000000000000000000000A6
:100A50000000000000000000000000000000000096
:100A60000000000000000000010000000000000085
:100A70000E33CDAB34126DE6ECDE05000B0000004A
:100A80000000000000000000000000000000000066
:100A90000000000000000000000000000000000056
:100AA0000000000000000000000000000000000046
:100AB0000000000000000000000000000000000036
:100DE000000000000000000071090000690200001E
:040DF00041020000BC
:04000003000006E90A
:00000001FF
